000SABRINA@RODOMINI.COM.BR            JONNY.SOUZA@SUMITOMOCHEMICAL.COM   1902210815CON501902000                                                                                                                                                                                                                                                               
520CONHE501902001                                                                                                                                                                                                                                                                                                                                             
52185288264000145RODOMINI TRANSPORTES E CARGAS LTDA                                                                                                                                                                                                                                                                                                           
5221         1    30393       06022021C85288264000145074678220001260000000000000007467822000479000000000000006932 SCMLO844000000000000000000000                                                                           422102852882640001455700100003039314999594761               000000000          00000            31   N1IS          NCESCPR          
5230013500002615055000000000000000000000000000001791553000000000000069000000001464867000000000000000000000000000000000000000000000000000000000000000000000055000000000000000000000000000000000000000000000000N0000000000000000000000000000000000020000000017915530120000000000021498600000000000000000000000000000000000000000000000000                       
524074678220001260001455751  040220210000000197184000004000000822120000000000000000000000                                                                                                    N0 6151                                                                                                                                                          
524074678220001260001456741  060220210000000417261280009500001792935000000000000000000000                                                                                                    N0 6151                                                                                                                                                          
5221         1    30391       06022021C85288264000145074678220001260000000000000000235798000827000000000000006932 SCQIT766400000000000000000000                                                                           422102852882640001455700100003039112734200161               000000000          00000            31   N1IS          NCESCPB          
5230001090000283759700000000000000000000000000000088041000000000000031000000000077476000000000000000000000000000000000000000000000000000000000000000000000000000000000000000000000000000000000000000000000000N0000000000000000000000000000000000020000000000880410120000000000001056500000000000000000000000000000000000000000000000000                       
524074678220001260001455921  040220210000000036406000001090000283759700000000000000000000                                                                                                    N0 6101                                                                                                                                                          
5221         1    30390       06022021C85288264000145074678220001260000000000000000235798001041000000000000005932 SCQIT766400000000000000000000                                                                           422102852882640001455700100003039017986063791               000000000          00000            31   N1IS          NCESCCE          
5230002700000671220000000000000000000000000000000223495000000000000033000000000183266000000000000000000000000000000000000000000000000000000000000000000000000000000000000000000000000000000000000000000000000N0000000000000000000000000000000000020000000002234950180000000000004022900000000000000000000000000000000000000000000000000                       
524074678220001260001455911  040220210000000105840000002700000671220000000000000000000000                                                                                                    N0 5101                                                                                                                                                          
5221         1    30389       06022021C85288264000145074678220001260000000000000000235798000908000000000000005932 SCQIT766400000000000000000000                                                                           422102852882640001455700100003038917107338321               000000000          00000            31   N1IS          NCESCCE          
5230007650001901790000000000000000000000000000000633240000000000000033000000000464257000000000000000000000000000000000000000000000000000000000000000000000000000000000000000000000000000000000000000000000000N0000000000000000000000000000000000020000000006332400180000000000011398300000000000000000000000000000000000000000000000000                       
524074678220001260001455901  040220210000000299880000007650001901790000000000000000000000                                                                                                    N0 5101                                                                                                                                                          
5290004000000002736329                                                                                                                                                                                                                                                                                                                                        
